{
  "contractName": "Students",
  "abi": [
    {
      "anonymous": false,
      "inputs": [
        {
          "indexed": true,
          "internalType": "uint256",
          "name": "date",
          "type": "uint256"
        },
        {
          "indexed": true,
          "internalType": "string",
          "name": "name",
          "type": "string"
        },
        {
          "indexed": false,
          "internalType": "uint8",
          "name": "age",
          "type": "uint8"
        },
        {
          "indexed": false,
          "internalType": "string",
          "name": "message",
          "type": "string"
        }
      ],
      "name": "logAddStudent",
      "type": "event"
    },
    {
      "constant": false,
      "inputs": [
        {
          "internalType": "address",
          "name": "_address",
          "type": "address"
        },
        {
          "internalType": "string",
          "name": "_name",
          "type": "string"
        },
        {
          "internalType": "uint8",
          "name": "_age",
          "type": "uint8"
        }
      ],
      "name": "setStudent",
      "outputs": [],
      "payable": false,
      "stateMutability": "nonpayable",
      "type": "function"
    },
    {
      "constant": true,
      "inputs": [
        {
          "internalType": "address",
          "name": "_address",
          "type": "address"
        }
      ],
      "name": "getStudent",
      "outputs": [
        {
          "components": [
            {
              "internalType": "string",
              "name": "name",
              "type": "string"
            },
            {
              "internalType": "uint8",
              "name": "age",
              "type": "uint8"
            },
            {
              "internalType": "bool",
              "name": "exists",
              "type": "bool"
            }
          ],
          "internalType": "struct Students.Student",
          "name": "",
          "type": "tuple"
        }
      ],
      "payable": false,
      "stateMutability": "view",
      "type": "function"
    },
    {
      "constant": true,
      "inputs": [],
      "name": "amountOfStudents",
      "outputs": [
        {
          "internalType": "uint256",
          "name": "count",
          "type": "uint256"
        }
      ],
      "payable": false,
      "stateMutability": "view",
      "type": "function"
    }
  ],
  "bytecode": "0x608060405234801561001057600080fd5b506108dd806100206000396000f3fe608060405234801561001057600080fd5b50600436106100415760003560e01c806349a04df8146100465780636b7b44d714610062578063e826371714610092575b600080fd5b610060600480360361005b9190810190610509565b6100b0565b005b61007c600480360361007791908101906104e0565b610258565b60405161008991906106bd565b60405180910390f35b61009a61038a565b6040516100a791906106df565b60405180910390f35b6000808473ffffffffffffffffffffffffffffffffffffffff1673ffffffffffffffffffffffffffffffffffffffff16815260200190815260200160002060010160019054906101000a900460ff166102525760008060008573ffffffffffffffffffffffffffffffffffffffff1673ffffffffffffffffffffffffffffffffffffffff16815260200190815260200160002090508281600001908051906020019061015d929190610397565b50818160010160006101000a81548160ff021916908360ff16021790555060018160010160016101000a81548160ff02191690831515021790555060018490806001815401808255809150509060018203906000526020600020016000909192909190916101000a81548173ffffffffffffffffffffffffffffffffffffffff021916908373ffffffffffffffffffffffffffffffffffffffff160217905550508260405161020c91906106a6565b6040518091039020427fcebfba8d8e5adf04192b4d2e3e47f9f41534cef838c48c3cb7bc0135360366598460405161024491906106fa565b60405180910390a350610253565b5b505050565b610260610417565b6000808373ffffffffffffffffffffffffffffffffffffffff1673ffffffffffffffffffffffffffffffffffffffff168152602001908152602001600020604051806060016040529081600082018054600181600116156101000203166002900480601f0160208091040260200160405190810160405280929190818152602001828054600181600116156101000203166002900480156103425780601f1061031757610100808354040283529160200191610342565b820191906000526020600020905b81548152906001019060200180831161032557829003601f168201915b505050505081526020016001820160009054906101000a900460ff1660ff1660ff1681526020016001820160019054906101000a900460ff1615151515815250509050919050565b6000600180549050905090565b828054600181600116156101000203166002900490600052602060002090601f016020900481019282601f106103d857805160ff1916838001178555610406565b82800160010185558215610406579182015b828111156104055782518255916020019190600101906103ea565b5b509050610413919061043d565b5090565b604051806060016040528060608152602001600060ff1681526020016000151581525090565b61045f91905b8082111561045b576000816000905550600101610443565b5090565b90565b6000813590506104718161086c565b92915050565b600082601f83011261048857600080fd5b813561049b61049682610755565b610728565b915080825260208301602083018583830111156104b757600080fd5b6104c2838284610819565b50505092915050565b6000813590506104da81610883565b92915050565b6000602082840312156104f257600080fd5b600061050084828501610462565b91505092915050565b60008060006060848603121561051e57600080fd5b600061052c86828701610462565b935050602084013567ffffffffffffffff81111561054957600080fd5b61055586828701610477565b9250506040610566868287016104cb565b9150509250925092565b610579816107d6565b82525050565b600061058a8261078c565b61059481856107b9565b93506105a4818560208601610828565b80840191505092915050565b60006105bb82610781565b6105c58185610797565b93506105d5818560208601610828565b6105de8161085b565b840191505092915050565b60006105f66004836107a8565b91507f54657374000000000000000000000000000000000000000000000000000000006000830152602082019050919050565b6000606083016000830151848203600086015261064682826105b0565b915050602083015161065b6020860182610688565b50604083015161066e6040860182610570565b508091505092915050565b61068281610802565b82525050565b6106918161080c565b82525050565b6106a08161080c565b82525050565b60006106b2828461057f565b915081905092915050565b600060208201905081810360008301526106d78184610629565b905092915050565b60006020820190506106f46000830184610679565b92915050565b600060408201905061070f6000830184610697565b8181036020830152610720816105e9565b905092915050565b6000604051905081810181811067ffffffffffffffff8211171561074b57600080fd5b8060405250919050565b600067ffffffffffffffff82111561076c57600080fd5b601f19601f8301169050602081019050919050565b600081519050919050565b600081519050919050565b600082825260208201905092915050565b600082825260208201905092915050565b600081905092915050565b60006107cf826107e2565b9050919050565b60008115159050919050565b600073ffffffffffffffffffffffffffffffffffffffff82169050919050565b6000819050919050565b600060ff82169050919050565b82818337600083830152505050565b60005b8381101561084657808201518184015260208101905061082b565b83811115610855576000848401525b50505050565b6000601f19601f8301169050919050565b610875816107c4565b811461088057600080fd5b50565b61088c8161080c565b811461089757600080fd5b5056fea365627a7a7231582091ab9eb4d1c325dc6ab9cacb3b41acef7e2293175e02f530c3fdcacc1280d1a26c6578706572696d656e74616cf564736f6c63430005100040",
  "source": "// SPDX-License-Identifier: MIT\r\npragma experimental ABIEncoderV2;\r\npragma solidity 0.5.16;\r\n\r\ncontract Students {\r\n\r\n    struct Student {\r\n        string name;\r\n        uint8 age;\r\n        bool exists;\r\n    }\r\n    \r\n    // add mapping\r\n    mapping (address => Student) students;\r\n    address[] private studentAccounts;\r\n    \r\n    // add event\r\n    event logAddStudent (\r\n    \tuint indexed date,\r\n    \tstring indexed name,\r\n    \tuint8 age,\r\n    \tstring message\r\n    );\r\n    \r\n        function setStudent(address _address, string memory _name, uint8 _age) public {\r\n        // add error handling\r\n        if (!students[_address].exists)\r\n        {\r\n            Student storage student = students[_address];\r\n            student.name = _name;\r\n            student.age = _age;\r\n            student.exists = true;\r\n            studentAccounts.push(_address);\r\n            // call event\r\n            emit logAddStudent(block.timestamp, _name, _age, \"Test\");\r\n        }\r\n        else\r\n        {\r\n            \r\n        }\r\n    }\r\n    \r\n    function getStudent(address _address) view public returns(Student memory){\r\n        return students[_address];\r\n    }\r\n  \r\n    function amountOfStudents() public view returns(uint count) {\r\n        return studentAccounts.length;\r\n    }\r\n\r\n}",
  "sourcePath": "C:/Users/Sarah/Desktop/Minor part 2/PD7/contracts/Students.sol",
  "compiler": {
    "name": "solc",
    "version": "0.5.16+commit.9c3226ce.Emscripten.clang"
  },
  "schemaVersion": "3.3.4",
  "updatedAt": "2021-03-11T20:02:47.700Z",
  "networkType": "ethereum",
  "devdoc": {
    "methods": {}
  },
  "userdoc": {
    "methods": {}
  }
}